:100000000C9434000C943E000C943E000C943E0082
:100010000C943E000C943E000C943E000C943E0068
:100020000C943E000C943E000C943E000C943E0058
:100030000C943E000C943E000C943E000C943E0048
:100040000C943E000C943E000C943E000C943E0038
:100050000C943E000C943E000C943E000C943E0028
:100060000C943E000C943E0011241FBECFEFD8E04C
:10007000DEBFCDBF0E9499000C94B2000C9400002A
:10008000823099F028F4882341F0813051F019C072
:10009000833079F0843089F014C06430A1F083E0BB
:1000A0000895643091F083E00895643081F083E036
:1000B0000895683071F081E00895683061F081E062
:1000C000089580E0089581E0089582E0089581E038
:1000D000089584E0089583E008958230A9F028F41B
:1000E000882341F0813051F01AC0833081F0843090
:1000F000A1F015C085B18C7F85B911C0289895B144
:1001000082E0892785B90BC02898299A08C02998C8
:1001100095B181E0892785B902C02998289A2FEFE7
:1001200083EC99E0215080409040E1F700C000004E
:10013000089583EF8AB983E084B98BB18C608BB961
:1001400080E0D0E0C9B1CC708C1739F0CC3029F008
:100150006C2F8D2F0E944000D82F8D2F0E946D0094
:080160008C2FF0CFF894FFCFC3
:00000001FF
