:100000000C9434000C94A1000C94CA000C9446008B
:100010000C9446000C9446000C9446000C94460048
:100020000C9446000C9446000C9446000C94460038
:100030000C9446000C9446000C9446000C94460028
:100040000C9446000C9446000C9446000C94460018
:100050000C9446000C9446000C9446000C94460008
:100060000C9446000C94460011241FBECFEFD8E03C
:10007000DEBFCDBF21E0A0E0B1E001C01D92A13004
:10008000B207E1F70E94F3000C9408010C94000001
:10009000823099F028F4882341F0813051F019C062
:1000A000833079F0843089F014C06430A1F083E0AB
:1000B0000895643091F083E00895643081F083E026
:1000C0000895683071F081E00895683061F081E052
:1000D000089580E0089581E0089582E0089581E028
:1000E000089584E0089583E008958230A9F028F40B
:1000F000882341F0813051F01AC0833081F0843080
:10010000A1F015C085B18C7F85B911C0289895B133
:1001100082E0892785B90BC02898299A08C02998B8
:1001200095B181E0892785B902C02998289A2FEFD7
:1001300083EC99E0215080409040E1F700C000003E
:1001400008951F920F920FB60F9211242F933F9391
:100150004F935F936F937F938F939F93AF93BF93CF
:10016000EF93FF938091000164E00E944800809328
:100170000001FF91EF91BF91AF919F918F917F917E
:100180006F915F914F913F912F910F900FBE0F9004
:100190001F9018951F920F920FB60F9211242F9354
:1001A0003F934F935F936F937F938F939F93AF93FF
:1001B000BF93EF93FF938091000168E00E94480095
:1001C00080930001FF91EF91BF91AF919F918F912B
:1001D0007F916F915F914F913F912F910F900FBE43
:1001E0000F901F90189583EF8AB983E084B98BB183
:1001F0008C608BB9E9E6F0E08081886080838DB304
:1002000083608DBB7894809100010E947500FBCFC4
:04021000F894FFCF90
:00000001FF
